{
  "_format": "hh-sol-artifact-1",
  "contractName": "FlexiLoan",
  "sourceName": "contracts/FlexiLoan.sol",
  "abi": [
    {
      "anonymous": false,
      "inputs": [
        {
          "indexed": true,
          "internalType": "address",
          "name": "borrower",
          "type": "address"
        },
        {
          "indexed": false,
          "internalType": "uint256",
          "name": "loanId",
          "type": "uint256"
        },
        {
          "indexed": false,
          "internalType": "uint256",
          "name": "amount",
          "type": "uint256"
        }
      ],
      "name": "LoanCreated",
      "type": "event"
    },
    {
      "inputs": [
        {
          "internalType": "uint256",
          "name": "_loanId",
          "type": "uint256"
        }
      ],
      "name": "borrowLoan",
      "outputs": [],
      "stateMutability": "payable",
      "type": "function"
    },
    {
      "inputs": [
        {
          "internalType": "address",
          "name": "",
          "type": "address"
        },
        {
          "internalType": "uint256",
          "name": "",
          "type": "uint256"
        }
      ],
      "name": "borrowerLoans",
      "outputs": [
        {
          "internalType": "address",
          "name": "borrower",
          "type": "address"
        },
        {
          "internalType": "uint256",
          "name": "amount",
          "type": "uint256"
        },
        {
          "internalType": "uint256",
          "name": "duration",
          "type": "uint256"
        },
        {
          "internalType": "uint256",
          "name": "interestRate",
          "type": "uint256"
        },
        {
          "internalType": "uint256",
          "name": "collateralAmount",
          "type": "uint256"
        },
        {
          "internalType": "bool",
          "name": "active",
          "type": "bool"
        }
      ],
      "stateMutability": "view",
      "type": "function"
    },
    {
      "inputs": [
        {
          "internalType": "address",
          "name": "",
          "type": "address"
        },
        {
          "internalType": "uint256",
          "name": "",
          "type": "uint256"
        }
      ],
      "name": "lenderLoans",
      "outputs": [
        {
          "internalType": "address",
          "name": "borrower",
          "type": "address"
        },
        {
          "internalType": "uint256",
          "name": "amount",
          "type": "uint256"
        },
        {
          "internalType": "uint256",
          "name": "duration",
          "type": "uint256"
        },
        {
          "internalType": "uint256",
          "name": "interestRate",
          "type": "uint256"
        },
        {
          "internalType": "uint256",
          "name": "collateralAmount",
          "type": "uint256"
        },
        {
          "internalType": "bool",
          "name": "active",
          "type": "bool"
        }
      ],
      "stateMutability": "view",
      "type": "function"
    },
    {
      "inputs": [
        {
          "internalType": "uint256",
          "name": "_loanId",
          "type": "uint256"
        }
      ],
      "name": "repayLoan",
      "outputs": [],
      "stateMutability": "payable",
      "type": "function"
    },
    {
      "inputs": [
        {
          "internalType": "uint256",
          "name": "_amount",
          "type": "uint256"
        },
        {
          "internalType": "uint256",
          "name": "_duration",
          "type": "uint256"
        },
        {
          "internalType": "uint256",
          "name": "_interestRate",
          "type": "uint256"
        },
        {
          "internalType": "uint256",
          "name": "_collateralAmount",
          "type": "uint256"
        }
      ],
      "name": "requestLoan",
      "outputs": [],
      "stateMutability": "nonpayable",
      "type": "function"
    }
  ],
  "bytecode": "0x608060405234801561001057600080fd5b50610cb1806100206000396000f3fe60806040526004361061004a5760003560e01c80633cdb72f11461004f578063753c7ff914610091578063ab7b1c89146100ba578063c1c1ba12146100d6578063e3ed1902146100f2575b600080fd5b34801561005b57600080fd5b50610076600480360381019061007191906108d7565b610134565b60405161008896959493929190610950565b60405180910390f35b34801561009d57600080fd5b506100b860048036038101906100b391906109b1565b6101ba565b005b6100d460048036038101906100cf9190610a18565b6103a2565b005b6100f060048036038101906100eb9190610a18565b610508565b005b3480156100fe57600080fd5b50610119600480360381019061011491906108d7565b6107b8565b60405161012b96959493929190610950565b60405180910390f35b6001602052816000526040600020818154811061015057600080fd5b9060005260206000209060060201600091509150508060000160009054906101000a900473ffffffffffffffffffffffffffffffffffffffff16908060010154908060020154908060030154908060040154908060050160009054906101000a900460ff16905086565b60006040518060c001604052803373ffffffffffffffffffffffffffffffffffffffff168152602001868152602001858152602001848152602001838152602001600115158152509050600160003373ffffffffffffffffffffffffffffffffffffffff1673ffffffffffffffffffffffffffffffffffffffff16815260200190815260200160002081908060018154018082558091505060019003906000526020600020906006020160009091909190915060008201518160000160006101000a81548173ffffffffffffffffffffffffffffffffffffffff021916908373ffffffffffffffffffffffffffffffffffffffff1602179055506020820151816001015560408201518160020155606082015181600301556080820151816004015560a08201518160050160006101000a81548160ff02191690831515021790555050503373ffffffffffffffffffffffffffffffffffffffff167f58d170de3a12438e22d81380f353b2fcac86f0a708a1374deaa5c6322a95992f60018060003373ffffffffffffffffffffffffffffffffffffffff1673ffffffffffffffffffffffffffffffffffffffff168152602001908152602001600020805490506103849190610a74565b87604051610393929190610aa8565b60405180910390a25050505050565b60008060003373ffffffffffffffffffffffffffffffffffffffff1673ffffffffffffffffffffffffffffffffffffffff16815260200190815260200160002082815481106103f4576103f3610ad1565b5b906000526020600020906006020190508060050160009054906101000a900460ff16610455576040517f08c379a000000000000000000000000000000000000000000000000000000000815260040161044c90610b5d565b60405180910390fd5b806001015434101561049c576040517f08c379a000000000000000000000000000000000000000000000000000000000815260040161049390610bef565b60405180910390fd5b3373ffffffffffffffffffffffffffffffffffffffff166108fc82600401549081150290604051600060405180830381858888f193505050501580156104e6573d6000803e3d6000fd5b5060008160050160006101000a81548160ff0219169083151502179055505050565b6000600160003373ffffffffffffffffffffffffffffffffffffffff1673ffffffffffffffffffffffffffffffffffffffff168152602001908152602001600020828154811061055b5761055a610ad1565b5b906000526020600020906006020190508060050160009054906101000a900460ff166105bc576040517f08c379a00000000000000000000000000000000000000000000000000000000081526004016105b390610b5d565b60405180910390fd5b80600101543414610602576040517f08c379a00000000000000000000000000000000000000000000000000000000081526004016105f990610c5b565b60405180910390fd5b8060000160009054906101000a900473ffffffffffffffffffffffffffffffffffffffff1673ffffffffffffffffffffffffffffffffffffffff166108fc82600401549081150290604051600060405180830381858888f19350505050158015610670573d6000803e3d6000fd5b5060008160050160006101000a81548160ff0219169083151502179055506000803373ffffffffffffffffffffffffffffffffffffffff1673ffffffffffffffffffffffffffffffffffffffff1681526020019081526020016000208190806001815401808255809150506001900390600052602060002090600602016000909190919091506000820160009054906101000a900473ffffffffffffffffffffffffffffffffffffffff168160000160006101000a81548173ffffffffffffffffffffffffffffffffffffffff021916908373ffffffffffffffffffffffffffffffffffffffff160217905550600182015481600101556002820154816002015560038201548160030155600482015481600401556005820160009054906101000a900460ff168160050160006101000a81548160ff02191690831515021790555050505050565b600060205281600052604060002081815481106107d457600080fd5b9060005260206000209060060201600091509150508060000160009054906101000a900473ffffffffffffffffffffffffffffffffffffffff16908060010154908060020154908060030154908060040154908060050160009054906101000a900460ff16905086565b600080fd5b600073ffffffffffffffffffffffffffffffffffffffff82169050919050565b600061086e82610843565b9050919050565b61087e81610863565b811461088957600080fd5b50565b60008135905061089b81610875565b92915050565b6000819050919050565b6108b4816108a1565b81146108bf57600080fd5b50565b6000813590506108d1816108ab565b92915050565b600080604083850312156108ee576108ed61083e565b5b60006108fc8582860161088c565b925050602061090d858286016108c2565b9150509250929050565b61092081610863565b82525050565b61092f816108a1565b82525050565b60008115159050919050565b61094a81610935565b82525050565b600060c0820190506109656000830189610917565b6109726020830188610926565b61097f6040830187610926565b61098c6060830186610926565b6109996080830185610926565b6109a660a0830184610941565b979650505050505050565b600080600080608085870312156109cb576109ca61083e565b5b60006109d9878288016108c2565b94505060206109ea878288016108c2565b93505060406109fb878288016108c2565b9250506060610a0c878288016108c2565b91505092959194509250565b600060208284031215610a2e57610a2d61083e565b5b6000610a3c848285016108c2565b91505092915050565b7f4e487b7100000000000000000000000000000000000000000000000000000000600052601160045260246000fd5b6000610a7f826108a1565b9150610a8a836108a1565b9250828203905081811115610aa257610aa1610a45565b5b92915050565b6000604082019050610abd6000830185610926565b610aca6020830184610926565b9392505050565b7f4e487b7100000000000000000000000000000000000000000000000000000000600052603260045260246000fd5b600082825260208201905092915050565b7f4c6f616e206973206e6f74206163746976650000000000000000000000000000600082015250565b6000610b47601283610b00565b9150610b5282610b11565b602082019050919050565b60006020820190508181036000830152610b7681610b3a565b9050919050565b7f496e73756666696369656e74206c6f616e2072657061796d656e7420616d6f7560008201527f6e74000000000000000000000000000000000000000000000000000000000000602082015250565b6000610bd9602283610b00565b9150610be482610b7d565b604082019050919050565b60006020820190508181036000830152610c0881610bcc565b9050919050565b7f496e636f7272656374206c6f616e20616d6f756e740000000000000000000000600082015250565b6000610c45601583610b00565b9150610c5082610c0f565b602082019050919050565b60006020820190508181036000830152610c7481610c38565b905091905056fea2646970667358221220bfda6c3cfc3f2c8bacabe235e47109d148dd81d03918b9e3f80d6be5839137a364736f6c63430008180033",
  "linkReferences": {},
  "deployedLinkReferences": {}
}