{
  "_format": "hh-sol-artifact-1",
  "contractName": "Lend",
  "sourceName": "contracts/Lend.sol",
  "abi": [
    {
      "inputs": [],
      "name": "getMemos",
      "outputs": [
        {
          "components": [
            {
              "internalType": "uint256",
              "name": "ROI",
              "type": "uint256"
            },
            {
              "internalType": "uint256",
              "name": "max_time",
              "type": "uint256"
            },
            {
              "internalType": "uint256",
              "name": "amount",
              "type": "uint256"
            },
            {
              "internalType": "address",
              "name": "from",
              "type": "address"
            }
          ],
          "internalType": "struct Lend.Memo[]",
          "name": "",
          "type": "tuple[]"
        }
      ],
      "stateMutability": "view",
      "type": "function"
    },
    {
      "inputs": [
        {
          "internalType": "uint256",
          "name": "ROI",
          "type": "uint256"
        },
        {
          "internalType": "uint256",
          "name": "max_time",
          "type": "uint256"
        }
      ],
      "name": "lendMoney",
      "outputs": [],
      "stateMutability": "payable",
      "type": "function"
    }
  ],
  "bytecode": "0x608060405234801561001057600080fd5b5061043c806100206000396000f3fe6080604052600436106100295760003560e01c8063865c51721461002e578063ad5b3af814610059575b600080fd5b34801561003a57600080fd5b50610043610075565b6040516100509190610373565b60405180910390f35b610073600480360381019061006e91906103c6565b610148565b005b60606000805480602002602001604051908101604052809291908181526020016000905b8282101561013f57838290600052602060002090600402016040518060800160405290816000820154815260200160018201548152602001600282015481526020016003820160009054906101000a900473ffffffffffffffffffffffffffffffffffffffff1673ffffffffffffffffffffffffffffffffffffffff1673ffffffffffffffffffffffffffffffffffffffff168152505081526020019060010190610099565b50505050905090565b600060405180608001604052808481526020018381526020013481526020013373ffffffffffffffffffffffffffffffffffffffff16815250908060018154018082558091505060019003906000526020600020906004020160009091909190915060008201518160000155602082015181600101556040820151816002015560608201518160030160006101000a81548173ffffffffffffffffffffffffffffffffffffffff021916908373ffffffffffffffffffffffffffffffffffffffff16021790555050505050565b600081519050919050565b600082825260208201905092915050565b6000819050602082019050919050565b6000819050919050565b61025481610241565b82525050565b600073ffffffffffffffffffffffffffffffffffffffff82169050919050565b60006102858261025a565b9050919050565b6102958161027a565b82525050565b6080820160008201516102b1600085018261024b565b5060208201516102c4602085018261024b565b5060408201516102d7604085018261024b565b5060608201516102ea606085018261028c565b50505050565b60006102fc838361029b565b60808301905092915050565b6000602082019050919050565b600061032082610215565b61032a8185610220565b935061033583610231565b8060005b8381101561036657815161034d88826102f0565b975061035883610308565b925050600181019050610339565b5085935050505092915050565b6000602082019050818103600083015261038d8184610315565b905092915050565b600080fd5b6103a381610241565b81146103ae57600080fd5b50565b6000813590506103c08161039a565b92915050565b600080604083850312156103dd576103dc610395565b5b60006103eb858286016103b1565b92505060206103fc858286016103b1565b915050925092905056fea26469706673582212206e08c1753ef5c0a5181fe64c6486ba53c3fd7f927c6946f846cc9be8e3f11cc264736f6c63430008180033",
  "linkReferences": {},
  "deployedLinkReferences": {}
}